{
  "contractName": "KeepCards",
  "abi": [
    {
      "constant": false,
      "inputs": [
        {
          "name": "content",
          "type": "string"
        }
      ],
      "name": "addCard",
      "outputs": [],
      "payable": false,
      "stateMutability": "nonpayable",
      "type": "function"
    },
    {
      "constant": true,
      "inputs": [
        {
          "name": "index",
          "type": "uint256"
        }
      ],
      "name": "getCardAt",
      "outputs": [
        {
          "name": "contents",
          "type": "string"
        }
      ],
      "payable": false,
      "stateMutability": "view",
      "type": "function"
    },
    {
      "constant": true,
      "inputs": [],
      "name": "getAmount",
      "outputs": [
        {
          "name": "contents",
          "type": "uint256"
        }
      ],
      "payable": false,
      "stateMutability": "view",
      "type": "function"
    },
    {
      "constant": false,
      "inputs": [
        {
          "name": "index",
          "type": "uint256"
        }
      ],
      "name": "deleteCard",
      "outputs": [],
      "payable": false,
      "stateMutability": "nonpayable",
      "type": "function"
    }
  ],
  "bytecode": "0x608060405234801561001057600080fd5b506107ce806100206000396000f300608060405260043610610062576000357c0100000000000000000000000000000000000000000000000000000000900463ffffffff16806335286004146100675780635e1acf651461010d5780639dc63a781461013a578063d321fe29146101a3575b600080fd5b34801561007357600080fd5b50610092600480360381019080803590602001909291905050506101ce565b6040518080602001828103825283818151815260200191508051906020019080838360005b838110156100d25780820151818401526020810190506100b7565b50505050905090810190601f1680156100ff5780820380516001836020036101000a031916815260200191505b509250505060405180910390f35b34801561011957600080fd5b50610138600480360381019080803590602001909291905050506102c5565b005b34801561014657600080fd5b506101a1600480360381019080803590602001908201803590602001908080601f01602080910402602001604051908101604052809392919081815260200183838082843782019150505050505091929192905050506104c2565b005b3480156101af57600080fd5b506101b861058f565b6040518082815260200191505060405180910390f35b60606000803373ffffffffffffffffffffffffffffffffffffffff1673ffffffffffffffffffffffffffffffffffffffff1681526020019081526020016000208281548110151561021b57fe5b906000526020600020018054600181600116156101000203166002900480601f0160208091040260200160405190810160405280929190818152602001828054600181600116156101000203166002900480156102b95780601f1061028e576101008083540402835291602001916102b9565b820191906000526020600020905b81548152906001019060200180831161029c57829003601f168201915b50505050509050919050565b600160003373ffffffffffffffffffffffffffffffffffffffff1673ffffffffffffffffffffffffffffffffffffffff168152602001908152602001600020548110151561031257600080fd5b6000803373ffffffffffffffffffffffffffffffffffffffff1673ffffffffffffffffffffffffffffffffffffffff16815260200190815260200160002060018060003373ffffffffffffffffffffffffffffffffffffffff1673ffffffffffffffffffffffffffffffffffffffff168152602001908152602001600020540381548110151561039e57fe5b906000526020600020016000803373ffffffffffffffffffffffffffffffffffffffff1673ffffffffffffffffffffffffffffffffffffffff168152602001908152602001600020828154811015156103f357fe5b90600052602060002001908054600181600116156101000203166002900461041c9291906105d6565b506000803373ffffffffffffffffffffffffffffffffffffffff1673ffffffffffffffffffffffffffffffffffffffff16815260200190815260200160002080548091906001900361046e919061065d565b50600160003373ffffffffffffffffffffffffffffffffffffffff1673ffffffffffffffffffffffffffffffffffffffff168152602001908152602001600020600081548092919060019003919050555050565b600160003373ffffffffffffffffffffffffffffffffffffffff1673ffffffffffffffffffffffffffffffffffffffff168152602001908152602001600020600081548092919060010191905055506000803373ffffffffffffffffffffffffffffffffffffffff1673ffffffffffffffffffffffffffffffffffffffff16815260200190815260200160002081908060018154018082558091505090600182039060005260206000200160009091929091909150908051906020019061058a929190610689565b505050565b6000600160003373ffffffffffffffffffffffffffffffffffffffff1673ffffffffffffffffffffffffffffffffffffffff16815260200190815260200160002054905090565b828054600181600116156101000203166002900490600052602060002090601f016020900481019282601f1061060f578054855561064c565b8280016001018555821561064c57600052602060002091601f016020900482015b8281111561064b578254825591600101919060010190610630565b5b5090506106599190610709565b5090565b81548183558181111561068457818360005260206000209182019101610683919061072e565b5b505050565b828054600181600116156101000203166002900490600052602060002090601f016020900481019282601f106106ca57805160ff19168380011785556106f8565b828001600101855582156106f8579182015b828111156106f75782518255916020019190600101906106dc565b5b5090506107059190610709565b5090565b61072b91905b8082111561072757600081600090555060010161070f565b5090565b90565b61075791905b80821115610753576000818161074a919061075a565b50600101610734565b5090565b90565b50805460018160011615610100020316600290046000825580601f10610780575061079f565b601f01602090049060005260206000209081019061079e9190610709565b5b505600a165627a7a7230582014be3dd402f0572f5a4a49fa3114840362b285ed499412b64fd8bf02b149a8d90029",
  "source": "pragma solidity ^0.4.15;\n\ncontract KeepCards {\n\n    mapping (address=>string[]) cards;\n    mapping (address=>uint256) amounts;\n\n    // event UserCreated(address indexed _address, bytes32 _pseudo);\n    // event UserDestroyed(address indexed _address);\n\n    function addCard (string content) public {\n        amounts[msg.sender]++;\n        cards[msg.sender].push(content);\n    }\n\n    function getCardAt (uint256 index) public view returns (string contents) {\n        return (cards[msg.sender][index]);\n    }\n\n    function getAmount () public view returns (uint256 contents) {\n        return (amounts[msg.sender]);\n    }\n\n    function deleteCard(uint256 index) public {\n        require(index < amounts[msg.sender]);\n        cards[msg.sender][index] = cards[msg.sender][amounts[msg.sender]-1];\n        cards[msg.sender].length--;\n        amounts[msg.sender]--;\n    }  \n\n}\n    // function authenticate () public constant returns (bytes32 _pseudo) {\n    //     require(exists(msg.sender));\n    //     return (users[msg.sender]);\n    // }\n\n    // function create (bytes32 _pseudo) public {\n    //     users[msg.sender] = _pseudo;\n    //     emit UserCreated(msg.sender, _pseudo);\n    // }\n\n    // function destroy () public {\n    //     require(exists(msg.sender));\n    //     delete users[msg.sender];\n    //     emit UserDestroyed(msg.sender);\n    // }\n\n    // function get (address _address) public constant returns(bytes32 _pseudo) {\n    //     require(exists(_address));\n    //     return (users[_address]);\n    // }\n\n// ROPSTEN ==> 0x7353cae6fcca50be63e4685d7dbb9b3b44c8ef51",
  "sourcePath": "/home/filipe/Documentos/solidity/note-taker/contracts/KeepCards.sol",
  "compiler": {
    "name": "solc",
    "version": "0.4.24+commit.e67f0147.Emscripten.clang"
  },
  "schemaVersion": "2.0.1",
  "updatedAt": "2018-08-31T19:16:31.789Z"
}