{
  "contractName": "KeepCards",
  "abi": [
    {
      "constant": false,
      "inputs": [
        {
          "name": "content",
          "type": "string"
        }
      ],
      "name": "addCard",
      "outputs": [],
      "payable": false,
      "stateMutability": "nonpayable",
      "type": "function"
    },
    {
      "constant": true,
      "inputs": [
        {
          "name": "index",
          "type": "uint256"
        }
      ],
      "name": "getCardAt",
      "outputs": [
        {
          "name": "contents",
          "type": "string"
        }
      ],
      "payable": false,
      "stateMutability": "view",
      "type": "function"
    },
    {
      "constant": true,
      "inputs": [],
      "name": "getAmount",
      "outputs": [
        {
          "name": "contents",
          "type": "uint256"
        }
      ],
      "payable": false,
      "stateMutability": "view",
      "type": "function"
    }
  ],
  "bytecode": "0x608060405234801561001057600080fd5b50610472806100206000396000f300608060405260043610610057576000357c0100000000000000000000000000000000000000000000000000000000900463ffffffff168063352860041461005c5780639dc63a7814610102578063d321fe291461016b575b600080fd5b34801561006857600080fd5b5061008760048036038101908080359060200190929190505050610196565b6040518080602001828103825283818151815260200191508051906020019080838360005b838110156100c75780820151818401526020810190506100ac565b50505050905090810190601f1680156100f45780820380516001836020036101000a031916815260200191505b509250505060405180910390f35b34801561010e57600080fd5b50610169600480360381019080803590602001908201803590602001908080601f016020809104026020016040519081016040528093929190818152602001838380828437820191505050505050919291929050505061028d565b005b34801561017757600080fd5b5061018061035a565b6040518082815260200191505060405180910390f35b60606000803373ffffffffffffffffffffffffffffffffffffffff1673ffffffffffffffffffffffffffffffffffffffff168152602001908152602001600020828154811015156101e357fe5b906000526020600020018054600181600116156101000203166002900480601f0160208091040260200160405190810160405280929190818152602001828054600181600116156101000203166002900480156102815780601f1061025657610100808354040283529160200191610281565b820191906000526020600020905b81548152906001019060200180831161026457829003601f168201915b50505050509050919050565b600160003373ffffffffffffffffffffffffffffffffffffffff1673ffffffffffffffffffffffffffffffffffffffff168152602001908152602001600020600081548092919060010191905055506000803373ffffffffffffffffffffffffffffffffffffffff1673ffffffffffffffffffffffffffffffffffffffff1681526020019081526020016000208190806001815401808255809150509060018203906000526020600020016000909192909190915090805190602001906103559291906103a1565b505050565b6000600160003373ffffffffffffffffffffffffffffffffffffffff1673ffffffffffffffffffffffffffffffffffffffff16815260200190815260200160002054905090565b828054600181600116156101000203166002900490600052602060002090601f016020900481019282601f106103e257805160ff1916838001178555610410565b82800160010185558215610410579182015b8281111561040f5782518255916020019190600101906103f4565b5b50905061041d9190610421565b5090565b61044391905b8082111561043f576000816000905550600101610427565b5090565b905600a165627a7a72305820eb5eb668bb4299de92ee8df05f3fb2b4f065551a3dd137bbd06082a38a988af30029",
  "source": "pragma solidity ^0.4.15;\n\ncontract KeepCards {\n\n    mapping (address=>string[]) cards;\n    mapping (address=>uint256) amounts;\n\n    // event UserCreated(address indexed _address, bytes32 _pseudo);\n    // event UserDestroyed(address indexed _address);\n\n    function addCard (string content) public {\n        amounts[msg.sender]++;\n        cards[msg.sender].push(content);\n    }\n\n    function getCardAt (uint256 index) public view returns (string contents) {\n        return (cards[msg.sender][index]);\n    }\n\n    function getAmount () public view returns (uint256 contents) {\n        return (amounts[msg.sender]);\n    }\n\n}\n    // function authenticate () public constant returns (bytes32 _pseudo) {\n    //     require(exists(msg.sender));\n    //     return (users[msg.sender]);\n    // }\n\n    // function create (bytes32 _pseudo) public {\n    //     users[msg.sender] = _pseudo;\n    //     emit UserCreated(msg.sender, _pseudo);\n    // }\n\n    // function destroy () public {\n    //     require(exists(msg.sender));\n    //     delete users[msg.sender];\n    //     emit UserDestroyed(msg.sender);\n    // }\n\n    // function get (address _address) public constant returns(bytes32 _pseudo) {\n    //     require(exists(_address));\n    //     return (users[_address]);\n    // }\n",
  "sourcePath": "/home/filipe/Documentos/solidity/note-taker/contracts/KeepCards.sol",
  "compiler": {
    "name": "solc",
    "version": "0.4.24+commit.e67f0147.Emscripten.clang"
  },
  "schemaVersion": "2.0.1",
  "updatedAt": "2018-08-10T18:00:36.043Z"
}